:040080007FE87E0394
:0B008400EF1FAC0670011E4C70F6224E
:1000030020B41012008020B4057E007F012220B4AA
:100013003980FB20B51012008020B5057E007F02D9
:100023002220B52680FB20B61012008020B6057E64
:10003300007F032220B61380FB20B70E120080201E
:0E004300B7057E007F042230B7FDE4FEFF22E9
:10005100120003EF64014E7004C2A280F3EF640248
:100061004E7004C2A180E9EF64034E7004C2A08007
:0F007100DFEF64044E70D9D2A2D2A1D2A080D109
:0300000002008F6C
:0C008F00787FE4F6D8FD7581070200516F
:00000001FF
