:100EAF0030302E303000430054656D703A004C3AAC
:100EBF002000483A2000465F74696D653A20004F64
:100ECF005F74696D653A2000575F543A200066746D
:100EDF005F736574004F745F7365740057745F734D
:100EEF0065740074656D703A200081838587898BE6
:0D0EFF008D80828486888A8C0000000000AF
:1010BF00071D10402325030621022B0001022D00DE
:1010CF0000022F0000020C0000020E00000224009C
:1010DF00FA01101701112801141401121701152814
:0F10EF00011823011A00011C0501271601261AFA
:091292007F021212AD7F057E00FF
:10129B00EFD39400400B7E027DF8DDFEDEFA1F805B
:0112AB00EF53
:0112AC00221F
:10113D0078477C007D007BFF7A0E79F27E007F0779
:10114D001203AB1212F37B007A0079477D01E4FFA5
:10115D001211B57BFF7A0E79AF7D017F061211B5A5
:0D116D007BFF7A0E79B57D017F0C0211B574
:101307007580FFC2A6D2A5D2A7AF80C2A7EF20E7FC
:01131700F6DF
:0113180022B2
:10132B00AE07121307C2A6C2A58E80D2A7C2A722F0
:100E3B00E52875F00A1203D12430FF120E9FE52826
:100E4B0075F00A1203D1AFF0EF2430FF120E9F7F23
:100E5B003A120E9FE52975F00A1203D12430FF12C6
:100E6B000E9FE52975F00A1203D1AFF0EF2430FF86
:100E7B00120E9F7F3A120E9FE52A75F00A1203D1CC
:100E8B002430FF120E9FE52A75F00A1203D1AFF042
:040E9B00EF2430FF11
:100E9F00AE07121307D2A6C2A58E80D2A7C2A72271
:10131900ED7004AC078004EF2440FCEC4480FF022C
:02132900132B84
:0611AF007BFFE4FD7F055B
:1011B5008B448A458946121319AB44AA45A94612A0
:1011C50003F360130546E5467002054514F912035D
:0811D500F3FF120E9F80E222DD
:1012F3007F3812132B7F0C12132B7F0612132B7FB5
:041303000102132BA5
:040D3100AB07AA065C
:100D3500E4FCC2A3D2A4C2B2C297AF03AE021212A0
:100D45009BC2A3D2A4D2B2C297AF03AE0212129B2A
:100D5500C2A3C2A4D2B2C297AF03AE0212129BC203
:100D6500A3C2A4D2B2D297AF03AE0212129BC2A302
:100D7500C2A4C2B2D297AF03AE0212129BD2A3C2D3
:100D8500A4C2B2D297AF03AE0212129BD2A3C2A4E1
:100D9500C2B2C297AF03AE0212129BD2A3D2A4C2B3
:100DA500B2C297AF03AE0212129B0CEC64017082C3
:010DB500221B
:040DB600AB07AA06D7
:100DBA00E4FCD2A3C2A4C2B2C297AF03AE0212121B
:100DCA009BD2A3C2A4C2B2D297AF03AE0212129BA5
:100DDA00C2A3C2A4C2B2D297AF03AE0212129BC27E
:100DEA00A3C2A4D2B2D297AF03AE0212129BC2A37D
:100DFA00C2A4D2B2C297AF03AE0212129BC2A3D24E
:100E0A00A4D2B2C297AF03AE0212129BC2A3D2A45B
:100E1A00C2B2C297AF03AE0212129BD2A3D2A4C22D
:100E2A00B2C297AF03AE0212129B0CEC640170823D
:010E3A002295
:1011DD00C2907F467E00EF1FAC0670011E4C70F66C
:1011ED00D290E4FEFF3090110FBF00010ED3EF94AB
:0B11FD0088EE941340EF7F00227F017A
:0112080022C3
:0C103C001211DD7F017E0012129B7FCCA0
:10104800E4FBFAC290053BE53B7002053AEF1392C8
:1010580090753A00753B06E53B153BAC3A700215B6
:101068003A4C70F3D290EFC313FF0BBB00010AEBAD
:0510780064084A70CE7F
:01107D002250
:1010FF007D087C00C2900FBF0000D2900FBF000090
:10110F000FBF0000A290E433C43333335480FBE9A4
:10111F00C3134BF97E007F04EF1FAA0670011E4A0E
:0D112F0070F6ED1D70011CED4C70C9AF0194
:01113C002290
:0800030012103C7F440210487A
:08139A0012103C7FBE02104856
:1012C600E4FFFE12000312139A1210FF8F39121058
:0612D600FFEFFEE539FF09
:0112DC0022EF
:0C000E00C2A27F647E0012129BD2A222CC
:0C137800C2A17FB87E0B12129BD2A122F2
:0C138400C2A07FB87E0B12129BD2A022E8
:0F0AE30075340075350075360E7B007A00790C7E
:060AF2008B318A328933CA
:100AF800E4F537F53820B41E7F05FE12129B20B4AA
:100B08000DAB31AA32A933E475F00112045430B4A4
:100B180003020BE680F820B54212129720B50DAB00
:100B280031AA32A933E475F00212045420B5110534
:100B380038E538700205377F017E0012129B80EC81
:100B4800D3E53894F4E53794015003020BE6AB344F
:100B5800AA35A936E475F002020BE320B63E12125C
:100B68009720B60DAB31AA32A933E475F00312040D
:100B78005420B6110538E538700205377F017E002C
:100B880012129B80ECD3E53894F4E5379401404E7B
:100B9800AB34AA35A936E475F003803F20B73F127D
:100BA800129720B70DAB31AA32A933E475F00412BD
:100BB800045420B7110538E538700205377F017EE7
:100BC8000012129B80ECD3E53894F4E53794014089
:100BD8000DAB34AA35A936E475F004120454E4F5D3
:030BE80037F538A6
:010BEB0022E7
:10117A00C29300C29100D29300E4FEEF139292EF61
:10118A00C313FFD29100C291000EBE08EEE4FEED39
:10119A00139292EDC313FDD29100C291000EBE08C4
:0411AA00EEC29300FE
:0111AE00221E
:100FF200C29300C29100D29300E4FDEF139292EFEC
:10100200C313FFD29100C291000DBD08EE00E4FDB2
:10101200A292E433FFC43333335480FCEEC3134C47
:10102200FED29100C291000DBD08E5C29300D2919B
:0910320000C29200D29200AF0648
:01103B002292
:10122F00E4FD7F8E12117AE4FCEC900F0093FF74B3
:10123F001D2CF8E6FD12117A0CBC07ED7D807F8E18
:03124F0002117A0F
:1012DD00E4FBEB900EF993FF120FF2741D2BF8A6A1
:0512ED00070BBB07ED3B
:0112F20022D9
:05136A0012136FD29583
:08136F007F017E02DEFEDFFAC1
:011377002253
:0F135B00D29612136AC29612136FC29502136FC5
:0A139000C29612136AD29602136F80
:02107E00AD07BC
:10108000E4FBFAEDC4131313540124FF9296ED25EB
:10109000E0FD12136AC29512136F0BBB08E5D296DE
:1010A00012136FD29530960F0AEAD394C840F6C255
:0E10B0009512136F7F0022C29512136F7F01FD
:0110BE00220F
:10120900E4FDFCD29612136FD29512136FEC25E010
:10121900FCA296E433420412136FC29512136F0DA8
:05122900BD08E5AF0463
:01122E00229D
:1012AD00AC05A90712135B7FA012107EAF011210BF
:0912BD007EAF0412107E021390B2
:02125200AC07E7
:1012540012135B7FA012107EAF0412107E12135B78
:0F1264007FA112107E121209AD07121390AF0571
:011273002258
:101274007F0A7E0012129B1211DD12122F12000E31
:0E1284001212F312133B12134B120F5C80FE7A
:100F0C00E4FD7F04121319E51FC4540F2430FF12A3
:100F1C000E9FE51F540F2430FF120E9F7F3A120EC6
:100F2C009FE51EC4540F2430FF120E9FE51E540F74
:100F3C002430FF120E9F7F3A120E9FE51DC4540FF2
:100F4C002430FF120E9FE51D540F2430FF020E9F1C
:1009C300E51FC4540FFFE52875F00A1203D16F60C9
:1009D30003020A73E51F540FFFE52875F00A12039B
:1009E300D1AEF0EE6F6003020A73E51EC4540FFF2D
:1009F300E52975F00A1203D16F7075E51E540FFFD8
:100A0300E52975F00A1203D1AEF0EE6F7062E51DB1
:100A1300C4540FFFE52A75F00A1203D16F7051E534
:100A23001D540FFFE52A75F00A1203D1AEF0EE6FE5
:020A3300703E13
:100A3500F5317532C8E5321532AE31700215314ED9
:100A450060097F017E00120D3180EA7FE87E031286
:100A5500129B7531007532C8E5321532AE31700220
:0E0A650015314E60787F017E00120DB680EADA
:100A7300E51FC4540FFFE51375F00A1203D16F701D
:100A83005EE51F540FFFE51375F00A1203D1AEF0B4
:100A9300EE6F704BE51EC4540FFFE51675F00A1296
:100AA30003D1B5073AE51E540FFFE51675F00A1298
:100AB30003D1AEF0EEB50727E51DC4540FFFE519CA
:100AC30075F00A1203D1B50716E51D540FFFE5199A
:100AD30075F00A1203D1AEF0EEB5070312138422A8
:100F5C00AD26E4FF121294AD277F01121294AD104E
:100F6C00121292AD117F03121294AD147F0412125F
:100F7C0094AD127F05121294AD157F06121294AD2A
:100F8C00187F07121294AD1A7F08121294AD1C7FB1
:0B0F9C00091212AD7F057E0002129BBF
:0404D6008E398F3A92
:1004DA00783B7C007D007BFF7A0F79077E007F05E1
:1004EA001203AB1212977F021212528F281212971E
:1004FA007F031212528F291212977F041212528FFF
:10050A002A1212977F051212528F131212977F0620
:10051A001212528F161212977F071212528F191245
:10052A0012977F081212528F171212977F0912120E
:10053A00528F1B121297C3E539648094805010E5DC
:10054A003A153A70021539633AFF6339FF8000ACF5
:10055A0039AD3AEC1202218F438E428D418C40E430
:10056A00FFFE7DC87C40AB43AA42A941A8401201C4
:10057A0016E4FBFAF9783F12002512025A8E398FD7
:10058A003AAE39AF3A7C277D1012041E7E037FE80B
:10059A00CFCDCFCECCCE12041E8F3CAE39AF3A7C33
:1005AA00037DE812041E7E007F64CFCDCFCECCCE71
:1005BA0012041E8F3DAE39AF3A7C007D6412041ED0
:1005CA007E007F0ACFCDCFCECCCE12041E8F3EAE98
:1005DA0039AF3A7C007D6412041EC3EF95277480FC
:1005EA00F86E985004C2A18002D2A1E52C6401459C
:1005FA002B600302069CE52E6401452D600B7F01EA
:10060A0012132B752D00752E017BFF7A0E79B7E434
:10061A00FD7F011211B57F07121319E53C2430FF43
:10062A00120E9F7F08121319E53D2430FF120E9F08
:10063A007F091213197F2E120E9F7F0A121319E5D2
:10064A003E2430FF120E9F7BFF7A0E79BD0D7F018B
:10065A001211B5E52775F00A842430FF120E9FE5C2
:10066A002775F00A84E5F02430FF120E9F7BFF7A8B
:10067A000E79C17F071211B5E52675F00A84243078
:10068A00FF120E9FE52675F00A84E5F02430FF027A
:10069A000E9FE52C6402452B7029E52E6402452D38
:1006AA00700302078D7F0112132B752D00752E0220
:1006BA007BFF7A0E79C57D01E4FF1211B5120E3B5C
:1006CA0002078DE52C6403452B7065E52E6403450E
:1006DA002D605B7F0112132B752D00752E037BFF96
:1006EA007A0E79CE7D01E4FF1211B5E51375F00A91
:1006FA001203D12430FF120E9FE513120E937F3A94
:10070A00120E9FE51675F00A1203D12430FF120E5D
:10071A009FE516120E937F3A120E9FE51975F00A9D
:10072A001203D12430FF120E9FE519120E93805343
:10073A00E52C6404452B704EE52E6404452D604378
:10074A007F0112132B752D00752E047BFF7A0E790B
:10075A00D77D017F041211B5E51775F00A1203D18E
:10076A002430FF120E9FE517120E937F3A120E9F46
:10077A00E51B75F00A1203D12430FF120E9FE51B08
:06078A00120E93120F0C89
:010790002246
:10133B00438901758CB1758ADFD2A9D2AFD28C22C9
:03000B00020BECF9
:100BEC00C0E0C0F0C083C082C0D075D000C000C0CF
:0D0BFC0001C002C003C004C005C006C00750
:100C0900C28C758CB1758AE07534007535007536FE
:100C19002F7B007A00792B120AF21207911209C36D
:100C29000509E50970020508050BE50B7002050ABF
:100C3900AF17EF3395E0FE7C007D3C12040CAD1B31
:100C4900ED3395E0FCEF2DFBEE3CFA7C007D1EAF09
:100C590003FE12040CEFB50B08EEB50A04C2A2801C
:100C69001EEB2401FFE43AFE7C007D1E12040CEF0A
:100C7900B50B0CEEB50A08D2A2750A00750B00D2A5
:010C89008CDE
:100C8A00D007D006D005D004D003D002D001D000BE
:0B0C9A00D0D0D082D083D0F0D0E03268
:10134B00438910758CB1758AE0D2ABD2AFD28E22A5
:03001B00020FA72A
:100FA700C0E0C0F0C083C082C0D075D000C000C010
:100FB70001C002C003C004C005C006C007C28E75C9
:100FC7008CB1758ADF1212DD1212C61204D6D28EC8
:100FD700D007D006D005D004D003D002D001D0006E
:0B0FE700D0D0D082D083D0F0D0E03218
:10079100E5306402452F60030208217F0112132B0B
:1007A1007A0E79DD1211AF120AE37D017F04121373
:1007B10019120E3BE50D6403450C7022F50CF50D85
:1007C1001529C3E52964809480503B75293B152880
:1007D100C3E52864809480502D7528178028E50D85
:1007E1006404450C702FF50CF50D0529D3E529643A
:1007F1008094BB4011E4F5290528D3E52864809451
:10080100974003E4F528AD28121292AD297F031217
:1008110012940207A8E50D6401450C708A0209B61D
:10082100E5306403452F60030208F67F0112132BA4
:100831007A0E79E41211AF120AE37D017F041213DB
:1008410019E51375F00A1203D12430FF120E9FE54A
:1008510013120E937F3A120E9FE51675F00A1203DA
:10086100D12430FF120E9FE516120E937F3A120E1D
:100871009FE51975F00A1203D12430FF120E9FE58E
:1008810019120E93E50D6402450C7022F50CF50D5D
:100891001516C3E51664809480503B75163B1513FD
:1008A100C3E51364809480502D7513178028E50DDE
:1008B1006404450C7031F50CF50D0516D3E516648D
:1008C1008094BB4011E4F5160513D3E513648094BD
:1008D100974003E4F513AD137F05121294AD167F13
:1008E10006121294020838E50D6401450C600302FA
:1008F10008380209B6E5306404452F60030209C2D5
:100901007F0112132B7BFF7A0E79EB1211B1120AC0
:10091100E37D017F06121319E51775F00A1203D161
:100921002430FF120E9FE517120E937F3A120E9F8D
:10093100E51B75F00A1203D12430FF120E9FE51B4F
:10094100120E93E50D6402450C7024F50CF50D743F
:10095100FB251BF51BC364809480503D751B3B1523
:1009610017C3E51764809480502F75173B802AE5E3
:100971000D6403450C7033F50CF50D7405251BF55D
:100981001BD3648094BB4011E4F51B0517D3E51715
:10099100648094BB4003E4F517AD177F08121294ED
:1009A100AD1B7F0912129402090FE50D6401450C7C
:1009B100600302090FF50CF50DF52FF530F52DF556
:0209C1002E22E4
:10001E000202C6E86480F8E933E83360110460F048
:10002E00ED33EC337009E8FCE9FDEAFEEBFF220448
:10003E0060DED3EB9FEA9EE99DE8C2E78CF0C2F743
:10004E0095F0400CE8CCF8E9CDF9EACEFAEBCFFB0F
:10005E0012029185D0F05804700320D5B3E80470D5
:10006E00075002B2D50202D092D5EC0460F7E4CC70
:10007E00C0E0C398F8603B94186008400DD0E0FBD8
:10008E000202A8E4FBFAC9FC8028E830E406E4C9C1
:10009E00FBE4CAFCE830E305E4C9CACBFCE854072C
:1000AE006010F8C3E913F9EA13FAEB13FBEC13FC37
:1000BE00D8F130F52FC3E49CFCEF9BFFEE9AFEEDDA
:1000CE0099FDD0E0FBEF4E4D4C701222DB03020285
:1000DE00CDEC2CFCEF33FFEE33FEED33FDED30E7D0
:1000EE00EB0202A8EF2BFFEE3AFEED39FDD0E0FB5E
:1000FE0050130BBB00030202D0ED13FDEE13FEEF07
:08010E0013FFEC13FC0202A830
:10011600EC4D6011E8497017ED33EC3304600DE4E3
:10012600FCFFFEFD22E933E8330470F80202C61232
:10013600029158046009E4CC248150062850090233
:1001460002D02840030202CDC0E0EB4A7044B980D9
:1001560006D0E0FB0202BCEF4E701CBD8008EBFF30
:10016600EAFEE9FD80EBE98DF0A4FEE5F00201FF71
:10017600E9CDF9EAFEEBFFEF89F0A4FCE5F0CE89C4
:10018600F0A42EFFE435F0CD89F0A42DFEE435F081
:100196008067EF4E7005BD80D780C3EF8BF0A4ACAF
:1001A600F0EE8BF0A42CFCE435F0F8EF8AF0A42CEA
:1001B600E5F038FCE433CB8DF0A42CFCE5F03BF8FD
:1001C600EE8AF0A42CFCE5F038F8E433CF89F0A4ED
:1001D6002CFCE5F038CF3400CE89F0A42FFFE5F0F3
:1001E6003EFEE433C98DF0A42EFEE5F039CD8AF04B
:1001F600A42FFFE5F03EFEE43DFD33D0E0FB5007C3
:100206000BBB000F0202D0EC2CFCEF33FFEE33FEEB
:06021600ED33FD0202A819
:10021C0075F020800E75F010800575F0087D007E5D
:10022C00007F003392D530D503120473EC334010A9
:10023C00EF33FFEE33FEED33FDEC33FCD5F0ED2266
:0E024C00E5F0247EA2D513CC92E7CDCEFF22A2
:10025A00EDD2E7CD33EC3392D524814006E4FFFE9C
:10026A00FDFC22FCE4CFCECDCC24E0501174FF80FB
:10027A00EDC3CC13CCCD13CDCE13CECF13CF047098
:07028A00F030D5DE02047321
:10029100E9D2E7C933E833F892D5EDD2E7CD33ECB3
:0702A10033FC5002B2D5222C
:1002A800EC30E7100FBF000C0EBE00080DBD0004B7
:1002B8000BEB6014A2D5EB13FCED92E7FD2274FF63
:1002C800FCFDFEFF22E480F8A2D574FF13FC7D80BC
:0302D800E480EFD0
:03000000020CA54A
:0C0CA500787FE4F6D8FD75814D020CEC60
:1002DB00E709F608DFFA8046E709F208DFFA803E05
:1002EB0088828C83E709F0A3DFFA8032E309F608F2
:1002FB00DFFA8078E309F208DFFA807088828C835A
:10030B00E309F0A3DFFA806489828A83E0A3F6080D
:10031B00DFFA805889828A83E0A3F208DFFA804CE7
:10032B0080D280FA80C680D4806980F280338010BE
:10033B0080A680EA809A80A880DA80E280CA803327
:10034B0089828A83ECFAE493A3C8C582C8CCC5839F
:10035B00CCF0A3C8C582C8CCC583CCDFE9DEE7806F
:10036B000D89828A83E493A3F608DFF9ECFAA9F0EE
:10037B00EDFB2289828A83ECFAE0A3C8C582C8CC44
:10038B00C583CCF0A3C8C582C8CCC583CCDFEADE5D
:10039B00E880DB89828A83E493A3F208DFF980CCBF
:1003AB0088F0EF60010E4E60C388F0ED2402B404B8
:1003BB000050B9F582EB2402B4040050AF2323455F
:0603CB00822390032B7356
:1003D100C2D530F707B2D563F0FF05F030E70CB2B4
:1003E100D5F4048463F0FF05F080018430D502F474
:0203F1000422E4
:1003F300BB010689828A83E0225002E722BBFE0208
:09040300E32289828A83E493223A
:10040C00EF8DF0A4A8F0CF8CF0A428CE8DF0A42E04
:02041C00FE22BE
:10041E00C2D5EC30E709B2D5E4C39DFDE49CFCEEF9
:10042E0030E715B2D5E4C39FFFE49EFE120481C3EC
:10043E00E49DFDE49CFC800312048130D507C3E4E7
:06044E009FFFE49EFE2268
:10045400BB010A89828A83F0E5F0A3F0225006F7F3
:0F04640009A7F01922BBFE06F3E5F009F31922F0
:0E047300C3E49FFFE49EFEE49DFDE49CFC229A
:100CB100021274E493A3F8E493A34003F68001F2D3
:100CC10008DFF48029E493A3F85407240CC8C33344
:100CD100C4540F4420C8834004F456800146F6DF13
:100CE100E4800B01020408102040809010BFE47ED4
:100CF100019360BCA3FF543F30E509541FFEE49308
:100D0100A360010ECF54C025E060A840B8E493A3CE
:100D1100FAE493A3F8E493A3C8C582C8CAC583CAF9
:100D2100F0A3C8C582C8CAC583CADFE9DEE780BEB1
:0110FE0000F1
:10048100BC000BBE0029EF8DF084FFADF022E4CC5F
:10049100F875F008EF2FFFEE33FEEC33FCEE9DEC28
:1004A100984005FCEE9DFE0FD5F0E9E4CEFD22ED6E
:1004B100F8F5F0EE8420D21CFEADF075F008EF2FB8
:1004C100FFED33FD4007985006D5F0F222C398FDA9
:0504D1000FD5F0EA2246
:00000001FF
