:0501190012011ED29549
:08011E007F017E02DEFEDFFA24
:0101260022B6
:0F010A00D296120119C29612011EC29502011E51
:0A013300C296120119D29602011EB5
:02005200AD07F8
:10005400E4FBFAEDC4131313540124FF9296ED2527
:10006400E0FD120119C29512011E0BBB08E5D296E0
:1000740012011ED29530960F0AEAD394C840F6C2F4
:0E0084009512011E7F0022C29512011E7F01FF
:01009200224B
:10009300E4FDFCD29612011ED29512011EEC25E05E
:1000A300FCA296E433420412011EC29512011E0DF6
:0500B300BD08E5AF04EB
:0100B8002225
:1000DB00AC05A90712010A7FA0120052AF01120052
:0900EB0052AF041200520201336D
:0200B900AC0792
:1000BB0012010A7FA0120052AF0412005212010A61
:0F00CB007FA1120052120093AD07120133AF054F
:0100DA002203
:1000F400EF1FAA0670011E4A600BE4FDEDC394785D
:0501040050EE0D80F734
:0101090022D3
:10000300E4F508AD08E4FF1200DB7F057E00120073
:10001300F4E4FF1200B9AC077F057E001200F4BCC4
:100023000104C2A28017BC0204C2A18010BC030455
:10003300C2A08009BC0406D2A2D2A1D2A07FB87EFE
:0F0043000B1200F40508E508C3940540B680B120
:03000000020127D3
:0C012700787FE4F6D8FD75810802000323
:00000001FF
