:0E01920081838587898B8D80828486888A8C04
:0901A00007081040232503062185
:1000D900C29300C29100D29300E4FEEF139292EF13
:1000E900C313FFD29100C291000EBE08EEE4FEEDEB
:1000F900139292EDC313FDD29100C291000EBE0876
:04010900EEC29300AF
:01010D0022CF
:10008F00C29300C29100D29300E4FDEF139292EF5E
:10009F00C313FFD29100C291000DBD08EE00E4FD25
:1000AF00A292E433FFC43333335480FCEEC3134CBA
:1000BF00FED29100C291000DBD08E5C29300D2910E
:0900CF0000C29200D29200AF06BB
:0100D8002205
:10014300E4FD7F8E1200D9E4FCEC90019993FF74D7
:10015300082CF8E6FD1200D90CBC07ED7D807F8EDC
:030163000200D9BE
:10016600E4FBEB90019293FF12008F74082BF8A624
:05017600070BBB07EDC3
:01017B002261
:10017C00EF1FAA0670011E4A600BE4FDEDC39478D4
:05018C0050EE0D80F7AC
:01019100224B
:10010E00120143120166E508B41404C2A28010E580
:10011E0008B41904C2A18007E508B4210BC2A07F60
:10012E00B87E0B12017C80DBE508B425D6D2A2D2B4
:05013E00A1D2A080CE5B
:03000000020003F8
:0C000300787FE4F6D8FD75810E02004AFB
:10000F0002010EE493A3F8E493A34003F68001F2F8
:10001F0008DFF48029E493A3F85407240CC8C333F2
:10002F00C4540F4420C8834004F456800146F6DFC1
:10003F00E4800B01020408102040809001A0E47EB0
:10004F00019360BCA3FF543F30E509541FFEE493B6
:10005F00A360010ECF54C025E060A840B8E493A37D
:10006F00FAE493A3F8E493A3C8C582C8CAC583CAA8
:10007F00F0A3C8C582C8CAC583CADFE9DEE780BE60
:0101A9000055
:00000001FF
