:1001B20030302E303000430062656E6E7900746517
:0501C2006D703A200001
:1001120078087C007D007BFF7A0179BA7E007F0639
:100122001200D3780E7C007D007BFF7A0179C07EBD
:10013200007F071200D31201C77B007A007908E41E
:10014200FD7F0512016F7B007A00790E7D017F0130
:1001520012016F7BFF7A0179B27D017F0612016F76
:0D0162007BFF7A0179B87D017F0C02016FEF
:1001DB007580FFC2A6D2A5D2A7AF80C2A7EF20E73A
:0101EB00F61D
:0101EC0022F0
:1001FF00AE071201DBC2A6C2A58E80D2A7C2A7226C
:10020F00AE071201DBD2A6C2A58E80D2A7C2A7224B
:1001ED00ED7004AC078004EF2440FCEC4480FF026A
:0201FD0001FF00
:10016F008B158A1689171201EDAB15AA16A917124E
:10017F0000F960130517E5177002051614F9120040
:08018F00F9FF12020F80E222C9
:1001C7007F381201FF7F0C1201FF7F061201FF7FAC
:0401D700010201FF21
:100197001201C7E4FD7F041201ED7F3012020F7FC9
:0B01A7003112020F7F3212020F80FEA7
:0300000002021FDA
:0C021F00787FE4F6D8FD75811702019786
:10000300E709F608DFFA8046E709F208DFFA803EDF
:1000130088828C83E709F0A3DFFA8032E309F608CC
:10002300DFFA8078E309F208DFFA807088828C8334
:10003300E309F0A3DFFA806489828A83E0A3F608E8
:10004300DFFA805889828A83E0A3F208DFFA804CC2
:1000530080D280FA80C680D4806980F28033801099
:1000630080A680EA809A80A880DA80E280CA803302
:1000730089828A83ECFAE493A3C8C582C8CCC5837A
:10008300CCF0A3C8C582C8CCC583CCDFE9DEE7804A
:100093000D89828A83E493A3F608DFF9ECFAA9F0C9
:1000A300EDFB2289828A83ECFAE0A3C8C582C8CC1F
:1000B300C583CCF0A3C8C582C8CCC583CCDFEADE38
:1000C300E880DB89828A83E493A3F208DFF980CC9A
:1000D30088F0EF60010E4E60C388F0ED2402B40493
:1000E3000050B9F582EB2402B4040050AF2323453A
:0600F3008223900053730C
:1000F900BB010689828A83E0225002E722BBFE0205
:09010900E32289828A83E4932237
:00000001FF
