:10005200C297AF82AE83120067C2A3D2A4C2B2C259
:0500620097AF82AE83A0
:10006700EF1FAA0670011E4A600BE4FDEDC39478EA
:0500770050EE0D80F7C2
:01007C002261
:04007D008F828E835D
:10008100E4FCC2A3C2A4D2B2120052D2A3C2A412EF
:10009100005FD2A3D2A4D2B2D2971200630CBC01EA
:0100A100E17D
:0100A200223B
:100003008F828E83D2A3C2A4C2B2C297120067D2D8
:10001300A3D2A4C2B2120052C2A3D2A4D2B212007B
:1000230061C2A3C2A4D2B2120061C2A3C2A4D2B25B
:10003300D297120063C2A3C2A4C2B2D297120063C2
:0F004300D2A3C2A4C2B2D297AF82AE830200672B
:0900AF007F017E0012000380F7BE
:030000000200A358
:0C00A300787FE4F6D8FD7581070200AFFD
:00000001FF
